{
  "contractName": "Rental",
  "abi": [
    {
      "inputs": [],
      "stateMutability": "payable",
      "type": "constructor",
      "payable": true
    },
    {
      "anonymous": false,
      "inputs": [
        {
          "indexed": false,
          "internalType": "bool",
          "name": "sent",
          "type": "bool"
        }
      ],
      "name": "paid",
      "type": "event"
    },
    {
      "anonymous": false,
      "inputs": [
        {
          "indexed": false,
          "internalType": "uint256",
          "name": "rentingPrice",
          "type": "uint256"
        }
      ],
      "name": "updatedRent",
      "type": "event"
    },
    {
      "stateMutability": "payable",
      "type": "receive",
      "payable": true
    },
    {
      "inputs": [
        {
          "internalType": "uint256",
          "name": "_rentingPrice",
          "type": "uint256"
        },
        {
          "internalType": "address",
          "name": "_renterID",
          "type": "address"
        },
        {
          "internalType": "uint256",
          "name": "_increment",
          "type": "uint256"
        },
        {
          "internalType": "uint256",
          "name": "_startAt",
          "type": "uint256"
        }
      ],
      "name": "addRenter",
      "outputs": [],
      "stateMutability": "nonpayable",
      "type": "function"
    },
    {
      "inputs": [
        {
          "internalType": "uint256",
          "name": "index",
          "type": "uint256"
        }
      ],
      "name": "getRenter",
      "outputs": [
        {
          "internalType": "uint256",
          "name": "",
          "type": "uint256"
        },
        {
          "internalType": "address",
          "name": "",
          "type": "address"
        },
        {
          "internalType": "uint256",
          "name": "",
          "type": "uint256"
        },
        {
          "internalType": "uint256",
          "name": "",
          "type": "uint256"
        }
      ],
      "stateMutability": "view",
      "type": "function",
      "constant": true
    },
    {
      "inputs": [
        {
          "internalType": "uint256",
          "name": "i",
          "type": "uint256"
        }
      ],
      "name": "updateRent",
      "outputs": [],
      "stateMutability": "nonpayable",
      "type": "function"
    },
    {
      "inputs": [
        {
          "internalType": "uint256",
          "name": "i",
          "type": "uint256"
        },
        {
          "internalType": "address payable",
          "name": "_to",
          "type": "address"
        }
      ],
      "name": "payForTheRent",
      "outputs": [],
      "stateMutability": "payable",
      "type": "function",
      "payable": true
    },
    {
      "inputs": [
        {
          "internalType": "uint256",
          "name": "index",
          "type": "uint256"
        }
      ],
      "name": "deleteRenter",
      "outputs": [],
      "stateMutability": "nonpayable",
      "type": "function"
    }
  ],
  "bytecode": "0x608060405242600155336000806101000a81548173ffffffffffffffffffffffffffffffffffffffff021916908373ffffffffffffffffffffffffffffffffffffffff160217905550610e70806100576000396000f3fe60806040526004361061004e5760003560e01c80633009c19b1461005a5780636462d7781461009a57806395576360146100b6578063eb9220ab146100df578063fd066ca21461010857610055565b3661005557005b600080fd5b34801561006657600080fd5b50610081600480360381019061007c9190610a2b565b610131565b6040516100919493929190610aa8565b60405180910390f35b6100b460048036038101906100af9190610b2b565b61023a565b005b3480156100c257600080fd5b506100dd60048036038101906100d89190610a2b565b61053a565b005b3480156100eb57600080fd5b5061010660048036038101906101019190610a2b565b610675565b005b34801561011457600080fd5b5061012f600480360381019061012a9190610b97565b6107b2565b005b60008060008060006002868154811061014d5761014c610bfe565b5b906000526020600020906005020160030154905060006018603c80846001546101769190610c5c565b6101809190610cbf565b61018a9190610cbf565b6101949190610cbf565b9050600287815481106101aa576101a9610bfe565b5b906000526020600020906005020160000154600288815481106101d0576101cf610bfe565b5b906000526020600020906005020160010160009054906101000a900473ffffffffffffffffffffffffffffffffffffffff166002898154811061021657610215610bfe565b5b90600052602060002090600502016002015483955095509550955050509193509193565b6000601e6018603c806002878154811061025757610256610bfe565b5b9060005260206000209060050201600301546001546102769190610c5c565b6102809190610cbf565b61028a9190610cbf565b6102949190610cbf565b61029e9190610cbf565b905060018110156102ae57600080fd5b600283815481106102c2576102c1610bfe565b5b906000526020600020906005020160010160009054906101000a900473ffffffffffffffffffffffffffffffffffffffff1673ffffffffffffffffffffffffffffffffffffffff163373ffffffffffffffffffffffffffffffffffffffff161461032b57600080fd5b60008054906101000a900473ffffffffffffffffffffffffffffffffffffffff1673ffffffffffffffffffffffffffffffffffffffff168273ffffffffffffffffffffffffffffffffffffffff161461038357600080fd5b60008273ffffffffffffffffffffffffffffffffffffffff166108fc600286815481106103b3576103b2610bfe565b5b9060005260206000209060050201600001549081150290604051600060405180830381858888f19350505050905080610421576040517f08c379a000000000000000000000000000000000000000000000000000000000815260040161041890610d4d565b60405180910390fd5b8015610494576002848154811061043b5761043a610bfe565b5b9060005260206000209060050201600401600190806001815401808255809150506001900390600052602060002090602091828204019190069091909190916101000a81548160ff0219169083151502179055506104fd565b600284815481106104a8576104a7610bfe565b5b9060005260206000209060050201600401600090806001815401808255809150506001900390600052602060002090602091828204019190069091909190916101000a81548160ff0219169083151502179055505b7f3252465b300088a5a611b4809c89a3f1dfad1849e507f8ba3fa56d212a5d940e8160405161052c9190610d88565b60405180910390a150505050565b6000805b6002838154811061055257610551610bfe565b5b9060005260206000209060050201600401805490508110156105f257600015156002848154811061058657610585610bfe565b5b906000526020600020906005020160040182815481106105a9576105a8610bfe565b5b90600052602060002090602091828204019190069054906101000a900460ff161515036105df5781806105db90610da3565b9250505b80806105ea90610da3565b91505061053e565b50600081111561067157600282815481106106105761060f610bfe565b5b90600052602060002090600502016000808201600090556001820160006101000a81549073ffffffffffffffffffffffffffffffffffffffff02191690556002820160009055600382016000905560048201600061066e9190610905565b50505b5050565b61016d6018603c806002858154811061069157610690610bfe565b5b9060005260206000209060050201600301546001546106b09190610c5c565b6106ba9190610cbf565b6106c49190610cbf565b6106ce9190610cbf565b1061075357600281815481106106e7576106e6610bfe565b5b9060005260206000209060050201600201546002828154811061070d5761070c610bfe565b5b9060005260206000209060050201600001546107299190610deb565b6002828154811061073d5761073c610bfe565b5b9060005260206000209060050201600001819055505b7fe84e085b047a3cdd61f681ebc43a865c173832c74829e73b4d47185262ab120b6002828154811061078857610787610bfe565b5b9060005260206000209060050201600001546040516107a79190610e1f565b60405180910390a150565b3373ffffffffffffffffffffffffffffffffffffffff1660008054906101000a900473ffffffffffffffffffffffffffffffffffffffff1673ffffffffffffffffffffffffffffffffffffffff161461080a57600080fd5b606060006040518060a001604052808781526020018673ffffffffffffffffffffffffffffffffffffffff16815260200185815260200184815260200183815250905060028190806001815401808255809150506001900390600052602060002090600502016000909190919091506000820151816000015560208201518160010160006101000a81548173ffffffffffffffffffffffffffffffffffffffff021916908373ffffffffffffffffffffffffffffffffffffffff160217905550604082015181600201556060820151816003015560808201518160040190805190602001906108fa92919061092d565b505050505050505050565b50805460008255601f01602090049060005260206000209081019061092a91906109d3565b50565b82805482825590600052602060002090601f016020900481019282156109c25791602002820160005b8382111561099357835183826101000a81548160ff0219169083151502179055509260200192600101602081600001049283019260010302610956565b80156109c05782816101000a81549060ff0219169055600101602081600001049283019260010302610993565b505b5090506109cf91906109d3565b5090565b5b808211156109ec5760008160009055506001016109d4565b5090565b600080fd5b6000819050919050565b610a08816109f5565b8114610a1357600080fd5b50565b600081359050610a25816109ff565b92915050565b600060208284031215610a4157610a406109f0565b5b6000610a4f84828501610a16565b91505092915050565b610a61816109f5565b82525050565b600073ffffffffffffffffffffffffffffffffffffffff82169050919050565b6000610a9282610a67565b9050919050565b610aa281610a87565b82525050565b6000608082019050610abd6000830187610a58565b610aca6020830186610a99565b610ad76040830185610a58565b610ae46060830184610a58565b95945050505050565b6000610af882610a67565b9050919050565b610b0881610aed565b8114610b1357600080fd5b50565b600081359050610b2581610aff565b92915050565b60008060408385031215610b4257610b416109f0565b5b6000610b5085828601610a16565b9250506020610b6185828601610b16565b9150509250929050565b610b7481610a87565b8114610b7f57600080fd5b50565b600081359050610b9181610b6b565b92915050565b60008060008060808587031215610bb157610bb06109f0565b5b6000610bbf87828801610a16565b9450506020610bd087828801610b82565b9350506040610be187828801610a16565b9250506060610bf287828801610a16565b91505092959194509250565b7f4e487b7100000000000000000000000000000000000000000000000000000000600052603260045260246000fd5b7f4e487b7100000000000000000000000000000000000000000000000000000000600052601160045260246000fd5b6000610c67826109f5565b9150610c72836109f5565b9250828203905081811115610c8a57610c89610c2d565b5b92915050565b7f4e487b7100000000000000000000000000000000000000000000000000000000600052601260045260246000fd5b6000610cca826109f5565b9150610cd5836109f5565b925082610ce557610ce4610c90565b5b828204905092915050565b600082825260208201905092915050565b7f73656e64206661696c6564000000000000000000000000000000000000000000600082015250565b6000610d37600b83610cf0565b9150610d4282610d01565b602082019050919050565b60006020820190508181036000830152610d6681610d2a565b9050919050565b60008115159050919050565b610d8281610d6d565b82525050565b6000602082019050610d9d6000830184610d79565b92915050565b6000610dae826109f5565b91507fffffffffffffffffffffffffffffffffffffffffffffffffffffffffffffffff8203610de057610ddf610c2d565b5b600182019050919050565b6000610df6826109f5565b9150610e01836109f5565b9250828201905080821115610e1957610e18610c2d565b5b92915050565b6000602082019050610e346000830184610a58565b9291505056fea2646970667358221220bc280abc7426a88a0dd1623eacfb26cb0bc1086b23dc73df73f353fe1d32b25764736f6c63430008110033",
  "immutableReferences": {},
  "source": "// SPDX-License-Identifier: MIT\r\npragma solidity 0.8.17;\r\n\r\n//Bu kontrat her yl devletin syledii miktarda kiray artran bir kontrat. Kira da bu kontrat stnden deniyor.\r\ncontract Rental{\r\n    event updatedRent(uint rentingPrice);\r\n    event paid(bool sent);\r\n    address private owner;\r\n    uint256 today = block.timestamp;\r\n\r\n    constructor() payable{\r\n        owner = msg.sender;\r\n    }\r\n\r\n    receive() external payable{}\r\n\r\n    struct Renter{ //Struct of the renter to keep track of them.\r\n        uint rentingPrice;\r\n        address renterID;\r\n        uint increment;\r\n        uint startAt;\r\n        bool[] rentTrack;\r\n    }\r\n\r\n    Renter[] private renters; //An arraylist to store renters.\r\n\r\n\r\n    function addRenter(uint _rentingPrice, address _renterID, uint _increment, uint _startAt) external{\r\n        require(owner == msg.sender);\r\n        bool[] memory _rentTrack;\r\n        Renter memory renter = Renter(_rentingPrice, _renterID, _increment, _startAt, _rentTrack);\r\n        renters.push(renter);\r\n    }\r\n\r\n    function getRenter(uint index) view external returns(uint, address, uint, uint) {\r\n        uint start = renters[index].startAt;\r\n        uint diff = (today - start) / 60 / 60 / 24;\r\n        return (renters[index].rentingPrice, renters[index].renterID, renters[index].increment, diff);\r\n    }\r\n\r\n    //update reting price method (if the renter stayed at there over a year)\r\n    function updateRent(uint i) external{\r\n        //If the renter stayed at there over a year, owner can increment the amount of the rent\r\n        if((today - renters[i].startAt)/60/60/24 >= (365)){\r\n            renters[i].rentingPrice = renters[i].rentingPrice + renters[i].increment;\r\n        }\r\n        emit updatedRent(renters[i].rentingPrice);\r\n    }\r\n\r\n    //Pay for the rent\r\n    function payForTheRent(uint i, address payable _to) external payable{\r\n        uint timeDiffMonths = (today - renters[i].startAt) /60/60/24/30;\r\n        require(timeDiffMonths >= 1);\r\n        require(msg.sender == renters[i].renterID);\r\n        require(_to == owner);\r\n        bool sent = _to.send(renters[i].rentingPrice);\r\n        require(sent, \"send failed\");\r\n        if(sent){\r\n            renters[i].rentTrack.push(true);\r\n        }else{\r\n            renters[i].rentTrack.push(false);\r\n        }\r\n        emit paid(sent);\r\n    }\r\n\r\n    //Delete the renter if renter didn't pay for the month\r\n    function deleteRenter(uint index) external{\r\n        uint count = 0;\r\n        for (uint i = 0; i < renters[index].rentTrack.length; i++){\r\n            if(renters[index].rentTrack[i] == false){\r\n                count++;\r\n            }\r\n        }\r\n\r\n        if(count > 0){\r\n            delete renters[index];\r\n        }\r\n    }\r\n\r\n}",
  "sourcePath": "C:\\Users\\E\\Desktop\\RentingContract\\contracts\\Rental.sol",
  "compiler": {
    "name": "solc",
    "version": "0.8.17+commit.8df45f5f.Emscripten.clang"
  },
  "schemaVersion": "3.4.10",
  "updatedAt": "2022-10-08T09:37:02.238Z",
  "networkType": "ethereum",
  "devdoc": {
    "kind": "dev",
    "methods": {},
    "version": 1
  },
  "userdoc": {
    "kind": "user",
    "methods": {},
    "version": 1
  }
}